:100000000C94E2050C9429060C9429060C942906FC
:100010000C9429060C9429060C9429060C942906A4
:100020000C9429060C9429060C940D260C94E026B9
:100030000C9483190C9429060C9429060C94290617
:100040000C9429060C9429060C9429060C94290674
:100050000C9429060C94F5190C9429060C94290685
:100060000C9429060C9429060C9429060C94290654
:100070000C9429060C9429060C9429060C94290644
:100080000C9429060C9429060C9429060C94290634
:100090000C9429060C9429060C9429060C94290624
:1000A0000C9429060C9429060C94290614001A00B5
:1000B00008001500170000001C0018000C001200BA
:1000C000130004001600070009000A0000000B00DE
:1000D0000D000E000F0033001D001B00060019006C
:1000E0000500E0001100100036003700380029003C
:1000F0002B00E300E1002A00E2002C0001512D005A
:10010000340028001E021F0252002F02300200009D
:100110004B0024002500260025022002500051003B
:100120004F00210200004E002100220023002E0279
:100130002F003000260227022402E00035001E00B6
:100140001F002000310002534900E300E1002A00B3
:10015000E2002C000100370027002E0049004A0071
:1001600052004D004B000000520040004100420090
:1001700043004C00500051004F005100000051005E
:100180003D003E003F0044000000A90000000000C8
:10019000005CE00000003A003B003C00450000002D
:1001A000AA00E300E1002A00E2002C001050460003
:1001B0004700480044454255473A20656E61626CED
:1001C00065642E0A000A002530313662003A2000AC
:1001D00025303258000A722F6320303132333435E3
:1001E000363738394142434445460A000A00253033
:1001F000325820006B6579626F6172645F7265705E
:100200006F72743A20000A0025303258006B65790D
:10021000626F6172645F7365745F6C65643A20003D
:1002200064656C5F6B65795F6269743A2063616EC7
:1002300027742064656C3A20253032580A006164C6
:10024000645F6B65795F6269743A2063616E2774DD
:10025000206164643A20253032580A00290A0025BA
:1002600075002F002575005D2800256400200025FD
:100270006400200025640020002564007C002530F7
:100280003258006D6F7573656B6579205B62746EB3
:100290007C782079207620685D287265702F6163F4
:1002A0006C293A205B006D6B5F776865656C5F74E5
:1002B000696D655F746F5F6D6178203D2025640A0C
:1002C000006D6B5F776865656C5F6D61785F7370FB
:1002D000656564203D2025640A006D6B5F74696D5F
:1002E000655F746F5F6D6178203D2025640A006D45
:1002F0006B5F6D61785F7370656564203D20256478
:100300000A006D6B5F696E74657276616C203D20CA
:1003100025640A006D6B5F64656C6179203D202562
:10032000640A006D6B5F776865656C5F74696D6505
:100330005F746F5F6D6178203D2025640A006D6BEE
:100340005F776865656C5F6D61785F737065656424
:10035000203D2025640A006D6B5F74696D655F74D4
:100360006F5F6D6178203D2025640A006D6B5F6DC5
:1003700061785F7370656564203D2025640A006DB7
:100380006B5F696E74657276616C203D2025640A2E
:10039000006D6B5F64656C6179203D2025640A0007
:1003A0000A00257500363A20776865656C5F7469C8
:1003B0006D655F746F5F6D61783A20000A00257586
:1003C00000353A20776865656C5F6D61785F7370A2
:1003D0006565643A20000A00257500343A20746986
:1003E0006D655F746F5F6D61783A20000A00257556
:1003F00000333A206D61785F73706565643A200060
:100400000A00257500323A20696E74657276616C57
:10041000286D73293A20000A00257500313A2064BE
:10042000656C6179282A31306D73293A20000A09F8
:100430002D2056616C756573202D0A004D3E004DD0
:1004400025643E20003F0073657420646566617515
:100450006C740A00433E200077686572652064650D
:100460006C74613A20637572736F723D25642C2041
:10047000776865656C3D25640A536565206874740A
:10048000703A2F2F656E2E77696B697065646961AC
:100490002E6F72672F77696B692F4D6F7573655F6C
:1004A0006B6579730A000A092D204D6F7573656BB2
:1004B0006579202D0A4553432F713A097175697486
:1004C0000A313A0964656C6179282A31306D7329E3
:1004D0000A323A09696E74657276616C286D732907
:1004E0000A333A096D61785F73706565640A343A5E
:1004F0000974696D655F746F5F6D61780A353A09DB
:10050000776865656C5F6D61785F73706565640AB7
:10051000363A09776865656C5F74696D655F746FFD
:100520005F6D61780A0A703A097072696E7420769C
:10053000616C7565730A643A097365742064656655
:1005400061756C74730A75703A092B310A646F77A0
:100550006E3A092D310A706775703A092B31300AED
:100560007067646F776E3A092D31300A0A737065CF
:100570006564203D2064656C7461202A206D61787B
:100580005F7370656564202A2028726570656174E8
:10059000202F2074696D655F746F5F6D6178290A23
:1005A000003F004D3E2000433E20004C25640A00E1
:1005B00074696D65725F72656164333228293A200F
:1005C0002530346C580A006B65796D61705F636F1C
:1005D0006E6669672E6E6B726F3A2025580A006B43
:1005E0006579626F6172645F69646C653A20255851
:1005F0000A006B6579626F6172645F70726F746F0D
:10060000636F6C3A2025580A00686F73745F6B65DE
:1006100079626F6172645F6C65647328293A202582
:10062000580A000A092D20537461747573202D0A2D
:10063000004743433A20382E322E30204156522D67
:100640004C4942433A20322E302E30204156525FE0
:10065000415243483A20617672350A004F5054495E
:100660004F4E533A204C554641204D4F5553454B24
:1006700045592045585452414B455920434F4E53FC
:100680004F4C4520434F4D4D414E44204E4B524F11
:1006900020343039360A004255494C443A20223041
:1006A0002E362E3132312D31382D6737343763668F
:1006B000372D646972747922202831353A30363A00
:1006C0003437205365702032342032303138290AD3
:1006D000005649443A203078313230392854656325
:1006E000686E6F6D616E637929205049443A2030FD
:1006F0007841314535284174726575732920564516
:10070000523A203078303030380A00444553433A6A
:1007100020712E6D2E6B2E206B6579626F61726475
:10072000206669726D7761726520666F7220417410
:10073000726575730A000A092D2056657273696F18
:100740006E202D0A000A092D20436F6E736F6C65B1
:10075000202D0A4553432F713A09717569740A6D4A
:100760003A096D6F7573656B65790A000A092D206A
:100770004D61676963202D0A443A094465627567D3
:10078000204D65737361676520546F67676C650AF8
:10079000583A094D61747269782044656275672022
:1007A0004D6F646520546F67676C65202D2053681A
:1007B0006F77206B65797072657373657320696EEE
:1007C000206D617472697820677269640A4B3A0916
:1007D0004B6579626F61726420446562756720546D
:1007E0006F67676C65202D2053686F77206B657984
:1007F0007072657373207265706F72740A4D3A0976
:100800004465627567204D6F75736520546F676727
:100810006C650A563A0956657273696F6E0A533AE7
:10082000095374617475730A433A094163746976B4
:1008300061746520436F6E736F6C65204D6F6465E6
:100840000A46312D4631303A09537769746368207E
:10085000746F204C6179657220302D392028463123
:1008600030203D204C30290A302D393A0953776920
:1008700074636820746F204C6179657220302D3963
:100880000A4553433A0953776974636820746F20AB
:100890004C6179657220302028616C7465726E61DC
:1008A0007465206B65792031290A47524156453AD3
:1008B0000953776974636820746F204C617965729D
:1008C00020302028616C7465726E617465206B65E0
:1008D000792032290A50415553453A094A756D70BD
:1008E00020746F20426F6F746C6F61646572202892
:1008F0005265736574290A4E3A094E4B524F205483
:100900006F67676C650A003F004E4B524F3A206F8D
:1009100066660A004E4B524F3A206F6E0A000A6D0F
:100920006F7573653A206F66660A000A6D6F75739E
:10093000653A206F6E0A000A6B6579626F617264B6
:100940003A206F66660A000A6B6579626F617264AD
:100950003A206F6E0A000A6D61747269783A206FEE
:1009600066660A000A6D61747269783A206F6E0AD1
:10097000000A64656275673A206F66660A000A6459
:10098000656275673A206F6E0A000A0A4A756D70D3
:10099000696E6720746F20626F6F746C6F6164653D
:1009A000722E2E2E2000433E20005B735D004B65AF
:1009B00079626F6172642073746172742E0A005BD5
:1009C000575D005B535D005B525D005B445D005B07
:1009D000435D000403300000000E03410074007208
:1009E0000065007500730000001803540065006383
:1009F0000068006E006F006D0061006E006300799A
:100A00000000000403090409028D00050100A0FA9A
:100A10000904000001030101000921110100012264
:100A200040000705810308000A09040100010301D1
:100A30000200092111010001224D0007058203086F
:100A4000000A09040200010300000009211101004D
:100A5000012236000705830308000A090403000287
:100A60000300000009211101000122220007058472
:100A7000032000010705040320000109040400010C
:100A8000030000000921110100012239000705853A
:100A90000320000112011001000000080912E5A165
:100AA00008000102030105010906A101050719E07B
:100AB00029E715002501950875018102050819012E
:100AC00029059505750191029501750391010507A9
:100AD000190029F71500250195F875018102C00656
:100AE00031FF0974A1010975150026FF00952075D5
:100AF0000881020976150026FF00952075089102ED
:100B0000C005010980A10185021601002603001A13
:100B100081002A8300751095018100C0050C090130
:100B2000A1018503160100269C021A01002A9C02DD
:100B3000751095018100C005010902A1010901A1FB
:100B40000005091901290515002501950575018183
:100B500002950175038101050109300931158125CF
:100B60007F95027508810609381581257F950175E5
:100B7000088106050C0A38021581257F9501750844
:100B80008106C0C005010906A101050719E029E792
:100B900015002501950875018102950175088101EF
:100BA000050819012905950575019102950175033F
:100BB00091010507190029FF150026FF009506750C
:100BC000088100C011241FBECFEFDAE0DEBFCDBF29
:100BD00004B603FE27C080913D0290913E02A09191
:100BE0003F02B09140028730904BA740B04BD1F408
:100BF00010923D0210923E0210923F02109240026B
:100C000014BE84B7877F84BF0FB6F894A8958091EF
:100C10006000886180936000109260000FBEE0E089
:100C2000F8E3099511E0A0E0B1E0E6E9F2E502C0E1
:100C300005900D92A634B107D9F722E0A6E4B1E001
:100C400001C01D92AD33B207E1F70E9430230C942E
:100C5000FA280C940000FF93EF93E0914601F09185
:100C60004701309709F00995EF91FF910895FC0134
:100C70008591803011F0EFDFFBCF0895FF27E0E290
:100C800030E247FF0CC0419597FF09C0EDE2609547
:100C9000709580959095611D711D811D911D27FF97
:100CA00002C0219530E350E2AA27660F771F881F04
:100CB000991FAA1FA41710F0A41B63955A95A9F7B2
:100CC000AA3008F0A95FA05DAF93F3956115710597
:100CD0008105910541F7ED3211F4EF93F395F21789
:100CE00018F43F93F395FBCF8F91B5DFFA95E1F7B9
:100CF0000895E991F9918591803021F0853219F0BC
:100D0000AADFF9CF089520E0E89455915532C1F358
:100D1000503311F4689455915A3348F4505390F37A
:100D2000220F022E220F220F200D250FF4CF0EF4DA
:100D3000219589919991533619F3533729F15335F8
:100D400059F1BC0188279927E8945C3621F48991F0
:100D5000999168945591543639F446EF7EF077FFB7
:100D60000DC08FEF9FEF0AC055374AE039F0583574
:100D700040E121F0523642E009F00895FF93EF93ED
:100D80007DDFEF91FF91B7CFFF93EF93FC0181914E
:100D90008030B9F360DFFBCFFF93EF9368DFF1CFD3
:100DA000DF93CF93CDB7DEB72596A3DFCF91DF9149
:100DB0000895611107C0FC018281882331F085EE1E
:100DC0000E94230E90E080E0089585EE0E94040FBB
:100DD000F9CF81E0089581E008950C94EB060C941E
:100DE000F00A0C94F30A08950C94F3060C94F4069C
:100DF00008950E94FE110E94F8062FEF84E39CE004
:100E0000215080409040E1F700C0000087E797E75D
:100E100090930108809300080C94191AFF920F9385
:100E20001F93CF93DF938C01FC01C081D18180910E
:100E30007101811139C08281882389F1CE010E941C
:100E40000E17F82E682FCE010E94BA16BE018F2D04
:100E50000E949508EC01B8010E94ED06882309F470
:100E60007CC0C631FCE5DF0709F43EC108F044C090
:100E7000C130ECE5DE0709F477C0D8F4C115DC45D4
:100E800009F466C081E080934D0180934E01C80152
:100E9000DF91CF911F910F91FF900C94E906CE0145
:100EA0000E94E616F82ED2CFCE010E940E17BE0188
:100EB000CFCFC531ECE5DE0728F7F8018281882322
:100EC00031F30E947518811102C00E945B180E94C4
:100ED000881890E090932F0280932E02FE01E35039
:100EE000FC4580912E028160E231F10508F055C089
:100EF000E450F74D0C94AA28C63DFCE5DF0709F441
:100F0000D8C0C0F4C43DECE5DE0709F496C0C53D89
:100F1000DC4509F0B7CFF8018281882309F4B4C019
:100F200010924E010E94B31990934C0180934B0193
:100F300080E290C0C93D8CE5D80721F1CA3DDC456F
:100F400009F0A0CFF8018281882339F082E01FC028
:100F5000F801828181110E94F90680E0DF91CF9132
:100F60001F910F91FF900895F80182818823A9F3C2
:100F70008091F50181608093F50184EB91E00E94FE
:100F80003706EBCFF8018281882339F380E00E9495
:100F9000D723E3CF80912E02826080932E0280912E
:100FA0002E020E948C180E94FE11D7CF80912E0233
:100FB0008460F3CF80912E028860EFCF80912E0263
:100FC0008061EBCF80912E028062E7CF80912E026C
:100FD0008064E3CF80912E028068DFCF80912E0263
:100FE0008C60DBCF80912E028E7FD7CF80912E0236
:100FF0008D7FD3CF80912E028B7FCFCF80912E0219
:10100000877FCBCF80912E028F7EC7CF80912E021B
:101010008F7DC3CF80912E028F7BBFCF80912E0218
:101020008F77BBCF80912E02837FB7CF90912E0216
:10103000892F97FB87F98058B0CFF80182818823E8
:1010400061F010924D010E94B31990934A01809370
:10105000490182E00E94580F80CF80914D0181119B
:101060000FC08091490190914A010E94CB19883CA0
:10107000910530F486E20E94230E86E20E94040F5E
:1010800082E00E945F0F69CF80914E0181110FC0F5
:1010900080914B0190914C010E94CB19883C9105A5
:1010A00030F487E20E94230E87E20E94040F80E260
:1010B000E8CFF8018281811133CF80914E018111F7
:1010C000F6CF80914B0190914C010E94CB19883C46
:1010D000910568F780E20E945F0F88E20E94230E6C
:1010E00088E20E94040F39CF0E94F517F80192811F
:1010F000992381F08A7A91E009F490E09093480175
:10110000811106C089E20E947E170E94C21725CF76
:1011100085E3F9CF80914801811104C089E20E94E2
:101120008517F3CF85E3FBCF0895972F70E02BE071
:10113000929F600D711D1124FB019CE2899FE00DBF
:10114000F11D1124EE0FFF1FE455FF4F859194917F
:101150000895FC01EE0FFF1FE455FF4F8591949118
:101160000895CF93DF930E9495080E94510AEC01E5
:10117000811520E5920708F042C0811530E49307FD
:1011800008F007C1883E910528F5803E910508F0DA
:101190009BC0883A910588F4853A910508F08AC089
:1011A0008130910509F490C0009709F48DC004972F
:1011B00008F08AC0D0E0C0E087C08D3B910508F4FC
:1011C00087C0805C9109C03CD105A0F30E94A908AA
:1011D000EC017AC08115904250F4C11581E0D80726
:1011E00008F072C0C03FD10528F3D0656DC0C115AD
:1011F00090E3D90708F0C3C0CE019F70E7CF8115F7
:1012000025E5920758F5811534E5930708F0F0C0FD
:10121000811542E5940750F4C11581E5D80708F41B
:10122000BBC0DC2FCC27C16FD06A4EC0982F9695DB
:1012300096959E0123703327C115D34508F0C9C088
:10124000C1E0D0E002C0CC0FDD1F2A95E2F720E21A
:10125000929FC0011124C82BD92BB9C0C11589E5B3
:10126000D80780F4C11598E5D90708F0C6C0C115A4
:1012700026E5D20708F09ECFDC2FCC27CC27DF71E4
:10128000D06222C0CE01C1153AE5D30708F4BAC036
:1012900090568115904208F08DCF8D2F8F710E944E
:1012A000CC0A90E0982F882788279F719C012C2BCF
:1012B000E901E6CF853A910509F4AEC0863A910579
:1012C00009F0ADC0C2E8D0E4CE01DF91CF9108951E
:1012D000883A910509F4A6C0893A910509F4A5C098
:1012E0008A3A910509F4A4C08B3A910509F4A3C088
:1012F0008C3A910509F4A2C08B3B910509F4A1C079
:101300008C3B910509F4A0C08D3A910509F49FC06A
:10131000803B910509F49EC08E3A910509F49DC069
:101320008F3A910509F49CC0813B910509F49BC05B
:10133000823B910509F49AC0833B910509F499C059
:10134000843B910509F498C0853B910509F497C049
:10135000863B910509F496C0873B910509F495C039
:10136000883B910509F494C0893B910509F493C029
:101370008A3B910509F492C0C0E0D4E4A5CFCE0128
:101380009927D3FF03C0EC01D86C9ECFEC01D06C41
:101390009BCFDF70D06A98CFCE01E4E09695879519
:1013A000EA95E1F783702C2F26952695237090E21D
:1013B000299F90011124382B8C2F8370C1E0D0E03D
:1013C00002C0CC0FDD1F8A95E2F7C22BD32BDC685D
:1013D0007BCFC1E0D0E002C0CC0FDD1F2A95E2F741
:1013E00030E2939FC0011124C82BD92BDA686CCF4F
:1013F000D82FCC27C46FD06A67CFDC2FCC27C06F23
:10140000D06A62CF34E0969587953A95E1F78F7070
:10141000CF70C06ED82FBECFC1E8D0E455CFC3E89F
:10142000D0E452CFC2EED4E44FCFC9EED4E44CCFD7
:10143000CAEED4E449CFC5EBD4E446CFC6EBD4E43E
:1014400043CFC3EBD4E440CFC4EBD4E43DCFC7EBF0
:10145000D4E43ACFCCECD4E437CFCDECD4E434CFE1
:10146000C3E8D5E431CFCAE8D5E42ECFC2E9D5E44C
:101470002BCFC4E9D5E428CFC1E2D6E425CFC3E21F
:10148000D6E422CFC4E2D6E41FCFC5E2D6E41CCF17
:10149000C6E2D6E419CFC7E2D6E416CFCAE2D6E454
:1014A00013CF8238910549F1B0F48133910509F4E5
:1014B00062C048F48932910509F456C08A32910518
:1014C00009F460C008958533910509F446C0893355
:1014D000910599F00895833E910531F138F4803EED
:1014E000910591F0823E9105B1F00895863E9105F7
:1014F00021F1873E910551F1089520912E0223702C
:10150000D9F080EE90E0089520912E0220FF14C0C3
:1015100089E390E0089520912E0222FF0DC024FD62
:1015200009C083EE90E0089520912E0222FD31C083
:1015300024FF02C090E080E0089520912E0223FF56
:10154000FBCF24FDF7CF87EE90E0089520912E0287
:1015500023FFEECF86EE90E0089520912E0225FF26
:10156000EBCF89E290E0089520912E0225FFE4CF91
:1015700085E390E0089520912E0226FFDDCF8AE2D8
:1015800090E0089520912E0226FFD6CF81E390E0CF
:10159000089582EE90E0089590912E0292FF06C089
:1015A000282F2871283069F4877F846093FF06C054
:1015B000282F2871283161F4877E846194FD877E0D
:1015C0000895282F2471243089F78B7F8860EECF0F
:1015D000282F2471243191F78B7E8861EFCF0895F5
:1015E0000C94EF0A08950C94F20ACF93DF93AEE1C6
:1015F000B1E042E251E0C1E0D0E08D91E82FE29508
:10160000EF70F0E061A18F709E0101C0220F8A95FA
:10161000EAF7922F9095962391A382A1822B82A321
:101620004A175B0751F7A3E1B1E04EE151E0C1E099
:10163000D0E08D91E82FE295EF70F0E061A18F701E
:101640009E0101C0220F8A95EAF7922F909596236A
:1016500091A382A1822B82A34A175B0751F71092B4
:101660005801109257011092500110924F011092A0
:101670005A01109259011092520110925101109288
:101680005C0110925B011092540110925301109270
:101690005E0110925D011092560110925501DF918A
:1016A000CF910C94EF064F925F927F928F929F9210
:1016B000AF92BF92CF92DF92EF92FF920F931F9360
:1016C000CF93DF939FE4492E91E0592E2EE1E22E35
:1016D00021E0F22E01E010E099249394E201A99018
:1016E000B9902E01DE011E921E92F70181917F01B9
:1016F000E82FE295EF70F0E091A18F70980101C0A2
:10170000220F8A95EAF7892F822B81A382A1822E4C
:101710008094882182A380EA8A95F1F783E1C82E1C
:1017200081E0D82E90E080E0E60179916E01472FAC
:1017300042954F7050E0EA0178A04D915C9111976D
:101740007F70E80102C0CC0FDD1F7A95E2F7BE0181
:10175000672109F06AC0B801082E02C0660F771F22
:101760000A94E2F7462B572B11965C934E93019601
:101770008B309105C9F681A1882281A282A1282BF4
:1017800022A38D919C91A816B90641F090925F0119
:101790000E94B3199093610180936001D7E54D16C3
:1017A000D1E05D0609F09ACF80915F01882351F165
:1017B00080916001909161010E94CB19069710F110
:1017C00080914F019091500190935801809357015F
:1017D000809151019091520190935A018093590147
:1017E000809153019091540190935C0180935B012F
:1017F000809155019091560190935E0180935D0117
:1018000010925F010E94F10681E0DF91CF911F915C
:101810000F91FF90EF90DF90CF90BF90AF909F908F
:101820008F907F905F904F90089570E060E09ACF26
:10183000E82FF0E0EE0FFF1FE95AFE4F8081918103
:101840000895CF92DF92EF92FF920F931F93CF9361
:10185000DF9385ED91E00E94370687E5E82E81E071
:10186000F82ED0E0C0E090EDC92E91E0D92E07EC23
:1018700011E0DF93CF93DF92CF920E94D0068DECE0
:1018800091E00E943706F701819191917F010E94BA
:101890004E189F938F931F930F930E94D00685EC51
:1018A00091E00E94370621968DB79EB708960FB635
:1018B000F8949EBF0FBE8DBFC430D105D1F6DF9125
:1018C000CF911F910F91FF90EF90DF90CF900895EF
:1018D00090936701809366010895E0916601F0910D
:1018E0006701309721F00190F081E02D099480E0AC
:1018F0000895EF92FF920F931F93CF93DF938C0184
:10190000E0916601F09167013097C1F10280F381A7
:10191000E02D09958091F50182FF30C080FF04C061
:1019200084EF91E00E943706D0E0C0E08EEEE82E12
:1019300081E0F82E8091F50180FF0EC0F801EC0FD8
:10194000FD1F80811F928F93FF92EF920E94D0061D
:101950000F900F900F900F902196C032D10551F744
:101960008091F50180FF0AC08CEE91E0DF91CF916C
:101970001F910F91FF90EF900C943706DF91CF915C
:101980001F910F91FF90EF900895E0916601F09103
:101990006701309721F00480F581E02D09940895C6
:1019A00020916401309165012817390771F09093F7
:1019B000650180936401E0916601F09167013097C1
:1019C00021F00680F781E02D0994089520916201AD
:1019D000309163012817390771F090936301809368
:1019E0006201E0916601F0916701309721F0008477
:1019F000F185E02D0994089508950C94FC0C81E084
:101A000008950E94AA1985B7806885BF85B7806848
:101A100085BF0E94F50A0C942A1ACF93C82F809193
:101A2000F50182FF1EC080FF1CC08DE092E00E9485
:101A300037068091F50180FF14C01F92CF9388E094
:101A400092E09F938F930E94D0068091F5010F90B2
:101A50000F900F900F9080FF04C086E092E00E94EC
:101A600037068C2FCF910C94F6065F926F927F927F
:101A70008F929F92AF92BF92CF92DF92EF92FF929E
:101A80000F931F93CF93DF93CDB7DEB72A970FB68F
:101A9000F894DEBF0FBECDBF0E94530B0E94FF0C17
:101AA000882309F47AC099E6A92E91E0B92E10E0B6
:101AB00000E088248394912C502E802F0E94180CD3
:101AC0007C01F501C190D1905F01C816D90609F4D7
:101AD0005EC08091F50181FD0E94210C90E080E0C4
:101AE000CE24DF243401082E02C0660C771C0A9431
:101AF000E2F7960126213721232B09F443C08E8378
:101B00005F82E620F72081E0EF2809F480E08887F3
:101B10000E94B3198160782F9A8789874E815F81EF
:101B200068858A850E94F40D000F111FF801E7599E
:101B3000FE4F8081918168267926718260820E94A1
:101B40003A1C0E946D0C909168018917B9F10E94AE
:101B50006D0C809368012A960FB6F894DEBF0FBE15
:101B6000CDBFDF91CF911F910F91FF90EF90DF904C
:101B7000CF90BF90AF909F908F907F906F905F902D
:101B80000C940D0D01968B30910509F0ABCF0F5FD2
:101B90001F4F0430110509F08FCF8FEF89838A839F
:101BA0001B820E94B3198160782F9D838C834981A9
:101BB0005A816B818D810E94F40DC1CF2A960FB698
:101BC000F894DEBF0FBECDBFDF91CF911F910F9173
:101BD000FF90EF90DF90CF90BF90AF909F908F904D
:101BE0007F906F905F900895CF93DF93CDB7DEB76E
:101BF0002B970FB6F894DEBF0FBECDBF4F8358872B
:101C000069877A878B871E821D8285E0FE01379661
:101C1000DE01119601900D928A95E1F749815A8172
:101C20006B817C818D819E812B960FB6F894DEBFEF
:101C30000FBECDBFDF91CF910C949C14FC0180812D
:101C400091810C945017CF93C82F882309F4DAC0E0
:101C50008238C1F40E946D0C81FDD4C089E30E94DA
:101C60007E170E94C2172FEF81EE94E02150804032
:101C70009040E1F700C0000089E30E948517CF91F2
:101C80000C94C2178338A1F40E946D0C80FDBAC079
:101C900083E50E947E170E94C2172FEF81EE94E029
:101CA000215080409040E1F700C0000083E5E5CF7F
:101CB0008438A1F40E946D0C82FDA4C087E40E94C8
:101CC0007E170E94C2172FEF81EE94E021508040D2
:101CD0009040E1F700C0000087E4CFCF8CEF8C0F7D
:101CE000813A48F48C2F0E94641F81118BC08C2F85
:101CF0000E947E17C4CF80E28C0F883048F4C770F2
:101D000081E001C0880FCA95EAF70E94F817B7CFA3
:101D10008BE58C0F833068F481E890E0C53A31F0B0
:101D200083E890E0C63A11F482E890E0CF910C94F9
:101D3000D00C88E58C0F853108F05EC082EE90E013
:101D4000C83A09F456C089EE90E0C93A09F451C086
:101D50008AEE90E0CA3A09F44CC085EB90E0CB3AA9
:101D600009F447C086EB90E0CC3A09F442C083EB1B
:101D700090E0CB3BF1F184EB90E0CC3BD1F187EBF1
:101D800090E0CD3AB1F18CEC90E0C03B91F18DEC5C
:101D900090E0CE3A71F183E891E0CF3A51F18AE8D0
:101DA00091E0C13B31F182E991E0C23B11F184E95C
:101DB00091E0C33BF1F081E292E0C43BD1F083E2D9
:101DC00092E0C53BB1F084E292E0C63B91F085E23F
:101DD00092E0C73B71F086E292E0C83B51F087E2A7
:101DE00092E0C93B31F090E080E0CA3B11F48AE216
:101DF00092E0CF910C94E60CC03F20F08C2FCF9155
:101E00000C94C61ACF910895882309F450C08238E3
:101E100071F40E946D0C81FF4AC089E30E947E1715
:101E20000E94C21789E30E9485170C94C217833859
:101E300059F40E946D0C80FF3AC083E50E947E1722
:101E40000E94C21783E5EFCF843859F40E946D0CCD
:101E500082FF2DC087E40E947E170E94C21787E48C
:101E6000E2CF9CEF980F913AF0F290E2980F983001
:101E700050F4877091E001C0990F8A95EAF7892F95
:101E80000E94FE17D2CF9BE5980F933020F490E08C
:101E900080E00C94D00C98E5980F953120F490E0F8
:101EA00080E00C94E60C803F10F00C942E1B0895FB
:101EB000882321F00E94F8170C94C21708958823F4
:101EC00021F00E94FE170C94C21708958F929F92E2
:101ED000AF92BF92CF92DF92EF92FF920F931F9338
:101EE000CF93DF937C01D62FC72FFC01058102958C
:101EF0000F70128111110E9415180E94BB17C82E75
:101F0000882371F01123B1F080E28D0F883090F0BA
:101F100082E00E94A5170E94BB1791E0C82EC92637
:101F2000DC2ED2949FE0D922ED2DF0E0E25FF64D59
:101F30000C94AA28C12CF4CF0C2F0F70C07F11F085
:101F40000295007F1123A9F0002359F080E28D0F44
:101F5000883010F0D11109C0802F0E94F8170E941C
:101F6000C2178D2F0E94230E14C0802F0E940818C4
:101F7000F6CF8D2F0E94040F002359F080E28D0FC1
:101F8000883010F0D11133C0802F0E94FE170E94BC
:101F9000C21798E0D91639F0D91648F086EF8D0DA2
:101FA0008F70823020F40E946D0C0E94F606CC20C7
:101FB00009F4D9C10E94981780FDD5C1F70112829A
:101FC0000E9492170E941E16C7010E94C0110E9413
:101FD0009217DF91CF911F910F91FF90EF90DF90BB
:101FE000CF90BF90AF909F908F900C943F16802F12
:101FF0000E940E18CCCFFC2FFF70BF2EC07FC032C6
:1020000019F0B29480EFB822DD2369F0D13049F1A4
:10201000112391F1002351F1F701858180FFA1CFB8
:102020008F70858323C0112381F0011106C00E94A7
:102030002E188B290E94580FACCF0130C1F70E9497
:102040002E188B290E942818A4CF011106C00E94C7
:102050002B188B2D0E945F0F9CCF013009F499CF74
:10206000F6CF112329F0063008F093CF8B2DE2CF65
:10207000053008F08ECFEDCF002359F38D2F0E944D
:10208000040F87CF8C2F86958695837069F08130F9
:1020900009F07FCF8D2F9C2F9370111102C090E01B
:1020A00080E00E94E60C75CF8D2F9C2F937011114C
:1020B00002C090E080E00E94D00C6BCF112309F1A8
:1020C000D53F99F0D63FB9F0D43F49F4809128022A
:1020D00090912902816090932902809328028D2F8C
:1020E0000E94C61A0E94AD1B54CF80912802909185
:1020F00029028260F0CF80912802909129028460A9
:10210000EACFD53F89F0D63FA9F0D43F49F480917A
:102110002802909129028E7F9093290280932802B1
:102120008D2F0E942E1BDECF8091280290912902D4
:102130008D7FF2CF80912802909129028B7FECCF86
:102140008C2F837009F047C0111123CF2D2F2295BA
:1021500026952770220F220F6D2F6F70862E912CDF
:10216000B12CA12C022E04C0880C991CAA1CBB1CEB
:102170000A94D2F760E070E0CB01D4FF0FC06FE0AB
:1021800070E080E090E004C0660F771F881F991F01
:102190002A95D2F76095709580959095C695C695CD
:1021A000C370C23051F080F4682979298A299B29AB
:1021B000C13071F00E94D015ECCE682979298A29A6
:1021C0009B290E94E215E5CE0E94D015C501B401FD
:1021D0000E94BE15DECE8695112311F08C2F8170E2
:1021E000882309F4D6CE2D2F229526952770220F0D
:1021F000220F6D2F6F70862E912CB12CA12C022EE8
:1022000004C0880C991CAA1CBB1C0A94D2F760E07D
:1022100070E0CB01D4FF0FC06FE070E080E090E091
:1022200004C0660F771F881F991F2A95D2F7609503
:10223000709580959095C695C695C370C23051F043
:1022400080F4682979298A299B29C13071F00E947C
:1022500095169FCE682979298A299B290E94A7165D
:1022600098CE0E949516C501B4010E94831691CEA6
:10227000E0E2ED0FE53108F04DC0F0E0E25EF64D32
:102280000C94AA28DF708C2F8F71112321F00E94EB
:102290001E168D2FCFCE0E943F168D2FDBCE112321
:1022A00041F0053008F075CE8C2F8F710E946216B8
:1022B00070CE063008F06DCEF7CF8C2F8F711123C2
:1022C00039F00E941E1665CE8C2F8F711123C9F331
:1022D0000E943F165ECE112329F08C2F8F710E9431
:1022E000091657CE0E94041654CE112349F0CF711F
:1022F0008C2F0E941E1663E08C2F0E949C1749CEE3
:1023000081E00E94A517023008F443CE82E00E94CB
:10231000A5173FCE112329F0011123CE8C2F8F71E9
:10232000D0CF002369F0D93309F0A8CEFFEF27EE14
:1023300083E0F15020408040E1F700C000009ECED5
:102340008C2F8F71C5CF4C2F4F706D2FC7010E94FE
:10235000D9060E9436151DCE4C2F4F706D2FC70128
:102360000E94940816CEDF91CF911F910F91FF909C
:10237000EF90DF90CF90BF90AF909F908F90089597
:102380000F931F93CF93DF93EC018B819C81892B5B
:1023900029F08881998189238F3F29F4DF91CF919A
:1023A0001F910F910895CE010E940E078823B1F36B
:1023B000688179818A810E945A178C010E94B9161E
:1023C0000E94BB15B801CE01DF91CF911F910F91F3
:1023D0000C94660F0E9415180E9425180E948C17F5
:1023E0000E94C2170E94CD1C0E94AD1B90E080E0AD
:1023F0000E94D00C90E080E00C94E60C0E9405183E
:102400000C94EA110E945017E92FE295EF70E25008
:10241000EE3070F4F0E0ED5CF64D0C94AA28803FAD
:1024200019F020F4803E20F481E00895843FE1F328
:1024300080E00895803EC0F3813FD1F7F5CF93FB54
:10244000882780F90895CF93DF9300D000D00F92B2
:10245000CDB7DEB70F900F900F900F900F90DF91D8
:10246000CF910895CF93DF9300D000D000D0CDB7A7
:10247000DEB726960FB6F894DEBF0FBECDBFDF9154
:10248000CF9108951F93CF93DF93C091720116E00F
:10249000809173018C1304C0DF91CF911F91089537
:1024A000D0E01C9FF0011D9FF00D1124EC58FE4F51
:1024B0004081518162817381848195810E943212B1
:1024C0002196C770E5CF4091A4015091A50160917C
:1024D000A6017091A7018091A8019091A9010C9487
:1024E00032121F93CF93DF938091A901807FC1F4B3
:1024F0008091A6018823A1F080917201C09173019F
:102500006091A4017091A5014091A7015091A8018B
:10251000D62FD723DA01A095B09516E0C81304C0D2
:10252000DF91CF911F91089590E04115510511F071
:10253000DF3F31F401968770F1CF2A0F3B1F17C0A0
:10254000189FF001199FF00D1124EC58FE4F2181C6
:102550002713F0CF20812613EDCF22812111EACF5E
:10256000238134812417350740F3241B350B283C85
:10257000310500F72091A9012F7020612093A90156
:1025800026E0289FF001299FF00D1124E758FE4F07
:1025900080818F708061808384EA91E00E94C01105
:1025A000DF91CF911F910C944212BF92CF92DF9294
:1025B000EF92FF920F931F93CF93DF93CDB7DEB7C8
:1025C00061970FB6F894DEBF0FBECDBF8C0185E0DA
:1025D000F801DE011D9601900D928A95E1F7D80170
:1025E0004C9111965C9111971296EC9012978091F4
:1025F000A7019091A801009709F47FC12091A4013F
:102600003091A501622F63236F3F09F476C11396C1
:10261000CD90DC90B090A601BB2009F411C1C81682
:10262000D906D0F1F601E81BF90BCF01FF24F39492
:10263000883C910508F0F12C8091A901982F907F9A
:10264000FF2009F4B8C091117FC0FE2C351329C0BA
:10265000241327C0E11025C08F7080618093A901E9
:102660000E94631284EA91E00E94C0118091A90146
:10267000D80115968C938F2D61960FB6F894DEBF16
:102680000FBECDBFDF91CF911F910F91FF90EF90C3
:10269000DF90CF90BF900895809590958C0D9D1DF3
:1026A000C5CFCD2829F0852F84238F3F09F041C164
:1026B00080E0B82FB170DB2E80FF3CC080917201AA
:1026C0002091730136E0821315C04D875E878D859A
:1026D0009E850E945017292F22952F702230F0F0EE
:1026E000243018F59F70F1F0F8019581907FD1F4B6
:1026F000D12C1EC090E0389FF001399FF00D1124BD
:10270000EC58FE4F6181651306C06081641303C0FD
:102710006281E6120FC001968770D5CF9F7011F0CD
:10272000882331F3805E883018F3C8010E94C011FD
:10273000FD2CA1CFEE2009F49ECF8091A9018160EC
:102740008093A901F12C97CF351306C0241304C040
:10275000D801EE2009F49AC04D875E878D859E854D
:102760000E940212882319F1EE2009F18091A9013B
:10277000803270F02091A4013091A50138872F8319
:102780001986DB86CA868C87CE0107960E94C01107
:1027900086E0F801A4EAB1E001900D928A95E1F794
:1027A0000E9471120E946312FF24F39464CFC80147
:1027B0000E94C011F9CF911113C07C2DD98AC88A0B
:1027C0006E2D89890E94231284EA91E00E94C01133
:1027D00086E0E4EAF1E0DF011D928A95E9F763C043
:1027E000351312C0241310C0E1100EC0F801858308
:1027F000C8010E94C011E4EAF1E086E0DF011D9209
:102800008A95E9F7FB2C37CF4D875E878D859E85AE
:102810000E940212882359F2EE2049F28091A90108
:10282000803208F4B5CF2091A4013091A5013A83FC
:1028300029831B82DD82CC828E83CE010196A6CFB6
:10284000C816D90698F1F601E81BF90BCF01F12C57
:10285000883C910508F049C0FE2CEE2009F4A7CF72
:10286000351332C0241330C08091A90180FD23C0EC
:10287000982F907F01F1D80115968C931597903F72
:1028800039F0982F907F905F8F70892B15968C93DD
:10289000C8010E94C01186E0F801A4EAB1E00190ED
:1028A0000D928A95E1F70E946312E5CE809590958E
:1028B0008C0D9D1DCCCF86E0F801A4EAB1E001901B
:1028C0000D928A95E1F7D7CE4D875E878D859E85DF
:1028D0000E94021281115CCF8091A90181608093D6
:1028E000A901C8010E94C011C6CE7C2DD98AC88A10
:1028F0006E2D89890E9423126BCFEE2009F457CFE9
:102900004D875E878D859E850E940212F82E882352
:1029100009F44DCF86E0F801A4EAB1E001900D92F0
:102920008A95E1F784EA91E00E941E0E0E947112DE
:10293000BACF81E08E25BDCE1F93CF93DF93CDB765
:10294000DEB72C970FB6F894DEBF0FBECDBF4F8316
:10295000588769877A878B879C87CE0107960E9464
:10296000D512882369F08A859B85892B39F04F81A0
:102970005885842F85238F3F09F071C016E05FC012
:1029800086E0FE013796DE01119601900D928A9540
:10299000E1F78A859B85892B89F388859F81892327
:1029A0008F3F61F32091730130E0C9010196877078
:1029B0009927409172014817190671F40E94FE117F
:1029C000109273011092720186E0E4EAF1E0DF01F7
:1029D0001D928A95E9F7D2CF96E0929FD001939FFE
:1029E000B00D1124AC58BE4FFE01319601900D92EE
:1029F0009A95E1F7809373010E944212BFCF819FA5
:102A0000C00111248C589E4F0E94D5128823E9F0F2
:102A1000E09172011E9FF0011124EC58FE4F40819D
:102A2000518162817381848195810E9432128091EB
:102A3000720190E0019687709927809372018091CE
:102A40007201909173018913DACF2C960FB6F89426
:102A5000DEBF0FBECDBFDF91CF911F910895698575
:102A60007A858B859C850E94321288CFEF92FF92E7
:102A70000F931F93CF93DF938C01892B81F0F12C5F
:102A8000EE24E394E8012196F8018491843770F4F0
:102A9000843008F05FC08130B1F08230A1F1DF9165
:102AA000CF911F910F91FF90EF900895853709F412
:102AB0004CC008F43DC09CE7980F903780F78F77A3
:102AC0000E94040F49C00E5F1F4FFE01849190E2E7
:102AD000980F983060F48770FE2D01C0FF0F8A9523
:102AE000EAF78F2F0E9418180E94C21702C00E9496
:102AF000230E8F2D815030F2EFE9FFE03197F1F78F
:102B000000C00000F7CF0E5F1F4FFE01849190E2DE
:102B1000980F983050F48770FE2D01C0FF0F8A95F2
:102B2000EAF78F2F0E941E18DFCF0E94040FE1CF1B
:102B30000E5F1F4FFE01C491C150D8F28FE99FE094
:102B40000197F1F700C00000F7CF0E5F1F4FFE01A5
:102B5000F490CFCF0E94230E8E01CBCF08950E9418
:102B6000AE156093CC017093CD018093CE0190930C
:102B7000CF010C94EA1108950C94AF150F931F9395
:102B80000091CC011091CD012091CE013091CF0167
:102B9000602B712B822B932B1F910F910C94AF15EF
:102BA0000F931F930091CC011091CD012091CE0184
:102BB0003091CF0160237123822393231F910F91C2
:102BC0000C94AF150F931F930091CC011091CD0180
:102BD0002091CE013091CF01602771278227932762
:102BE0001F910F910C94AF150C94AE150C94F41525
:102BF0000E94F6156093C8017093C9018093CA01C1
:102C00009093CB010C94EA1160E070E0CB010C943E
:102C1000F8150F931F9341E050E060E070E08A01E7
:102C20009B0104C0000F111F221F331F8A95D2F78A
:102C3000C901B8011F910F910C94F8150F931F93C0
:102C400041E050E060E070E004C0440F551F661F93
:102C5000771F8A95D2F78091C8019091C901A09100
:102C6000CA01B091CB018A019B01082B192B2A2B99
:102C70003B2BC901B8011F910F910C94F8150F93CC
:102C80001F9341E050E060E070E004C0440F551F26
:102C9000661F771F8A95D2F7CB01BA0160957095B0
:102CA000809590950091C8011091C9012091CA01A9
:102CB0003091CB0160237123822393231F910F91C5
:102CC0000C94F8150F931F9341E050E060E070E022
:102CD00004C0440F551F661F771F8A95D2F7809155
:102CE000C8019091C901A091CA01B091CB018A019C
:102CF0009B01082719272A273B27C901B8011F91E3
:102D00000F910C94F8150F931F930091C801109127
:102D1000C9012091CA013091CB01602B712B822B0C
:102D2000932B1F910F910C94F8150F931F93009103
:102D3000C8011091C9012091CA013091CB016023D3
:102D40007123822393231F910F910C94F8150F93F5
:102D50001F930091C8011091C9012091CA013091BF
:102D6000CB0160277127822793271F910F910C9425
:102D7000F81508952BE0929F800D1124982F9770DD
:102D800041E001C0440F9A95EAF7869586958695AD
:102D900095E0899FF0011124E655FE4F90E080E018
:102DA00070E05191DF0111979B01082E02C036950A
:102DB00027950A94E2F721702195252724232527BA
:102DC0002C9301968530910561F708952BE0929F31
:102DD000800D1124982F977086958695869525E00D
:102DE000829FF0011124E655FE4F50E040E080E064
:102DF000219130E0092E02C0369527950A94E2F71A
:102E000021703327042E01C0220F0A94EAF7822B87
:102E10004F5F5F4F4530510559F70895BF92CF92EC
:102E2000DF92EF92FF920F931F93CF93DF938C016A
:102E3000C090C801D090C901E090CA01F090CB01C8
:102E40008091CC019091CD01A091CE01B091CF01A4
:102E5000C82AD92AEA2AFB2ACFE1D0E0BC2ED70122
:102E6000C6010C2E04C0B695A795979587950A9430
:102E7000D2F780FD0EC0219788F7B12C8B2DDF9102
:102E8000CF911F910F91FF90EF90DF90CF90BF9067
:102E90000895B8018C2F0E94B108019761F3EECF1D
:102EA000CF93DF93EC010E940E17BE01DF91CF910B
:102EB0000C94B1081F93CF93DF93EB0190917101B4
:102EC000992331F0CB01DF91CF911F910C945017D2
:102ED000882379F0CB010E940E17182F682FCE019E
:102EE0000E94BA16BE01812FDF91CF911F910C94E1
:102EF000B108CB010E94E616182FF4CF682F8091FD
:102F00000001909101010C941019682F809100012B
:102F1000909101010C941B19809100019091010185
:102F20000C9426198091D0018595859585950895F5
:102F30008091D0018770089598E0899F90011124B5
:102F4000622B6093D0010C941E169091D001809555
:102F500089238093D001282F277061F4282F082E11
:102F6000000C330B9217130629F0859585958595EE
:102F70000C943F1608959091D001977081E009F468
:102F800080E00895E0910001F09101018091F40149
:102F90008083E0910001F091010180819091F30123
:102FA000892B8083E0910001F09101018081909153
:102FB000F201892B80839091D101992381F0E091D6
:102FC0000001F09101018081892B808380910001B3
:102FD000909101010E94911881111092D10180916C
:102FE0000001909101010C94790C8091F4010895F5
:102FF0009091F401892B8093F4010895809590912C
:10300000F40198239093F40108951092F401089527
:103010009091F301892B8093F3010895809590910D
:10302000F30198239093F30108951092F30108950A
:103030009091F201892B8093F201089580959091EF
:10304000F20198239093F20108951092F2010895ED
:103050008093D10108951092D10108958091D101FA
:10306000089590934701809346010895829590E0DA
:103070009C01220F331F220F331F2C7C95958795BF
:10308000959587958373282B30E0C901880F991F88
:103090008A7A359527952575822B0895CF93DF93EE
:1030A000D92F0E943618C82F8D2F0E9436189C2FBA
:1030B000DF91CF9108956DEE7EEF90E080E00E9469
:1030C000E42860E082E090E00E94D22860E083E0A3
:1030D00090E00E94D22860E084E090E00E94D22834
:1030E00060E085E090E00C94D22890E080E00E94BF
:1030F000CC2821E08D3E9E4F09F020E0822F0895DC
:1031000082E090E00C94C42883E090E00C94C42802
:1031100084E090E00C94C428682F84E090E00C9444
:10312000D228FC0131969C01205E3F4F80E09191B6
:1031300091118F5FE217F307D1F708959C01FC010D
:1031400032969FEF80E04191461751F09F3F19F46E
:10315000411101C0982F8F5F8E31A9F79F3F09F46D
:103160000895290F311D97FD3A95F901628308955D
:10317000FC01329680962191261303C0DF0111973E
:103180001C92E817F907B9F70895E62FE695E6953A
:10319000E695EF3171F0E80FF92FF11D677021E02E
:1031A00030E001C0220F6A95EAF78181822B81838A
:1031B00008958091F50180FF0CC01F926F938EE3FC
:1031C00092E09F938F930E94D0060F900F900F90E4
:1031D0000F900895E62FE695E695E695EF3179F0A4
:1031E000E80FF92FF11D677021E030E001C0220FD8
:1031F0006A95EAF72095818128232183089580919B
:10320000F50180FF0CC01F926F9380E292E09F93C4
:103210008F930E94D0060F900F900F900F900895FB
:1032200020911201222329F020912E0227FD0C94D7
:10323000C5180C949E1820911201222329F0209188
:103240002E0227FD0C94EA180C94B818FC01319654
:1032500080961192E817F907E1F708950895089507
:103260000C942F190E94301980913402843049F156
:103270001092F60188E190E020E40FB6F894A8954A
:10328000809360000FBE2093600080E00E94F606ED
:103290000E94301983B7817F846083BF83B78160C8
:1032A00083BF7894889583B78E7F83BF0FB6F894D9
:1032B000A895809160008861809360001092600002
:1032C0000FBE08950895CF930E942E190E94530BAC
:1032D0000E946219C0E08C2F0E94180C892B31F4D7
:1032E000CF5FC430C1F780E0CF91089581E0FCCF7B
:1032F00008950C9478190E94FE110E946D0C0E9492
:10330000F6060C9479191F921FB61F9211248F9301
:103310009F93AF93BF938091F601811113C0809169
:103320002A0290912B02A0912C02B0912D0241967D
:10333000A11DB11D80932A0290932B02A0932C0211
:10334000B0932D02BF91AF919F918F911F901FBE9F
:103350001F90189582E084BD93E095BD9AEF97BDCC
:1033600080936E0008952FB7F89480912A0290916F
:103370002B02A0912C02B0912D022FBF08952FB7E0
:10338000F89460912A0270912B0280912C02909106
:103390002D022FBF0895CF92DF92EF92FF920F93ED
:1033A0001F932FB7F89440912A0250912B026091FD
:1033B0002C0270912D022FBF6A017B01EE24FF24A5
:1033C0008C0130E020E0C016D106E206F30650F092
:1033D000481B590BCA011F910F91FF90EF90DF908E
:1033E000CF90089541505109F3CF78941F921FB6A2
:1033F0001F9211248F939F93AF93BF9380912A02C2
:1034000090912B02A0912C02B0912D020196A11D4A
:10341000B11D80932A0290932B02A0932C02B093AB
:103420002D02BF91AF919F918F911F901FBE1F9052
:10343000189587E797E7909301088093000888E143
:103440009AE00FB6F894A895809360000FBE909311
:103450006000FFCF0E947518811102C00E945B18A6
:103460000E9480188093F5010E94881890E0909344
:103470002F0280932E020E948418682F70E090E043
:1034800080E00C94BC158091F90180FF12C060911E
:10349000050185E0689FB0011124759567957595C4
:1034A000679560387105A8F561157105A1F1862F42
:1034B000089581FF09C06091050185E0689FB00112
:1034C000112475956795EDCF6091050182FD0AC0C5
:1034D0008091FA018823D1F0909104016091050157
:1034E000891728F085E0689FB0011124DACF869F04
:1034F000B001112485E0869F9001879F300D112433
:10350000692F70E0C9010E949628CBCF65E070E07A
:10351000CECF8FE7089581E008958091F90180FF73
:103520000CC06091030170E075956795759567957E
:103530006115710549F1862F089581FF06C06091DC
:10354000030170E075956795F3CF6091030182FDEB
:103550000BC09091FA019923A1F060910201809132
:103560000301961738F0682F70E06038710500F39A
:103570008FE70895899FC001112470E00E9496286A
:10358000F4CF61E070E0D7CF81E00895803F31F45F
:103590000E94431A81958093FD010895813F19F49B
:1035A0000E94431AF8CF823F31F40E94431A81955A
:1035B0008093FC010895833F19F40E94431AF8CFC9
:1035C000893F29F40E948D1A8093FE0108958A3F55
:1035D00021F40E948D1A8195F7CF8B3F31F40E9420
:1035E0008D1A81958093FF0108958C3F19F40E94F4
:1035F0008D1AF8CF843F31F48091FB018160809374
:10360000FB010895853F21F48091FB018260F7CF93
:10361000863F21F48091FB018460F1CF873F21F444
:103620008091FB018860EBCF883F21F48091FB0102
:103630008061E5CF8D3F31F48091F9018160809305
:10364000F90108958E3F21F48091F9018260F7CF4E
:103650008F3FB9F78091F9018460F1CF9091FC011F
:10366000803F41F48091FD0187FD1092FD01992377
:1036700071F00895813F29F48091FD011816ACF393
:10368000F6CF823F81F497FFF2CF1092FC01809138
:10369000FD019091FE01892B9091FF01892B49F743
:1036A0001092FA010895833F19F4191674F3DFCFCD
:1036B000893F39F48091FE011816CCF61092FE0174
:1036C000D6CF8A3F29F48091FE0187FFD0CFF6CF75
:1036D0008B3F39F48091FF0187FFC9CF1092FF0122
:1036E000C6CF8C3F29F48091FF011816BCF3BFCFE1
:1036F000843F31F48091FB018E7F8093FB01B7CF33
:10370000853F21F48091FB018D7FF7CF863F21F427
:103710008091FB018B7FF1CF873F21F48091FB01EA
:10372000877FEBCF883F21F48091FB018F7EE5CF2F
:103730008D3F31F48091F9018E7F8093F90197CF0D
:103740008E3F21F48091F9018D7FF7CF8F3F09F0F3
:103750008ECF8091F9018B7FF0CF8091F50183FFAF
:103760007EC083E892E00E9437068091FB011F92A1
:103770008F938EE792E09F938F930E94D0068CE701
:1037800092E00E9437068091FC01282F082E000C41
:10379000330B3F938F9389E792E09F938F930E941F
:1037A000D00687E792E00E9437068091FD01282F1E
:1037B000082E000C330B3F938F9384E792E09F9386
:1037C0008F930E94D00682E792E00E943706809194
:1037D000FE01282F082E000C330B3F938F938FE6AA
:1037E00092E09F938F930E94D0068DE692E00E9414
:1037F00037068091FF01282F082E000C330B3F93D2
:103800008F938AE692E09F938F930E94D00687E67B
:1038100092E00E9437068091FA011F928F9384E60E
:1038200092E09F938F930E94D00682E692E00E94DE
:1038300037068091F9011F928F938FE592E09F9355
:103840008F930E94D0068CE592E00E9437068DB7D8
:103850009EB74C960FB6F8949EBF0FBE8DBF8BEFF0
:1038600091E00E94C50C0E94B3199093F8018093D7
:10387000F70108951F93CF93DF938091F701909103
:10388000F8010E94CB19AC019091FA012091060138
:1038900030E0911106C0209107018AE0289F900135
:1038A00011244217530778F02091FC01D091FD01BB
:1038B0001091FE01C091FF01211109C08D2F812BB4
:1038C0008C2B09F066C0DF91CF911F9108959F3F27
:1038D00019F09F5F9093FA01121624F40E94431A84
:1038E0008093FC018091FC0187FF05C00E94431A70
:1038F00081958093FC011D1624F40E94431A809345
:10390000FD018091FD0187FF05C00E94431A81954A
:103910008093FD013091FC013323C1F02091FD0122
:103920002223A1F045EB3403C0011124892F91110A
:1039300001C081E08093FC0145EB24039001112438
:10394000832F311101C081E08093FD01111624F411
:103950000E948D1A8093FE018091FE0187FF05C0B1
:103960000E948D1A81958093FE011C1624F40E94FA
:103970008D1A8093FF018091FF0187FF05C00E948F
:103980008D1A81958093FF01DF91CF911F910C9447
:10399000AD1B9F3F09F09DCFAECF85E0EBEFF1E08F
:1039A000DF011D928A95E9F71092FA011092F90150
:1039B000089586EA94E00E9437061F9281E08F9373
:1039C0001F9285E08F9388E594E09F938F930E94E8
:1039D000D0060F900F900F900F900F900F900895BA
:1039E000833009F445C028F4813061F0823049F118
:1039F0000895853009F46AC008F451C0863009F48E
:103A00007CC0089580910701482F460F5527551F08
:103A10004F3F510594F4680F6093070180910701AF
:103A20001F928F9381E993E09F938F930E94D0061A
:103A30000F900F900F900F9008958FEF80930701D4
:103A4000EDCF80910601482F460F5527551F4F3F58
:103A5000510554F4680F60930601809106011F928E
:103A60008F938FE793E0E0CF8FEF80930601F5CF40
:103A700080910501482F460F5527551F4F3F51058F
:103A800054F4680F60930501809105011F928F9394
:103A90008CE693E0C9CF8FEF80930501F5CF80913D
:103AA0000401482F460F5527551F4F3F510554F429
:103AB000680F60930401809104011F928F9387E542
:103AC00093E0B2CF8FEF80930401F5CF8091030193
:103AD000482F460F5527551F4F3F510554F4680F87
:103AE00060930301809103011F928F938EE393E013
:103AF0009BCF8FEF80930301F5CF80910201482F78
:103B0000460F5527551F4F3F510554F4680F6093DA
:103B10000201809102011F928F9383E293E084CF90
:103B20008FEF80930201F5CF8330C9F128F4813003
:103B300061F0823019F10895853009F452C008F41B
:103B40003FC0863009F45EC0089580910701681770
:103B500090F4861B80930701809107011F928F9339
:103B600084E193E09F938F930E94D0060F900F9073
:103B70000F900F90089510920701EECF80910601EB
:103B8000681750F4861B80930601809106011F92EE
:103B90008F9382E093E0E6CF10920601F6CF8091FA
:103BA0000501681750F4861B80930501809105017B
:103BB0001F928F938FEE92E0D5CF10920501F6CF32
:103BC00080910401681750F4861B80930401809152
:103BD00004011F928F938AED92E0C4CF10920401EA
:103BE000F6CF80910301681750F4861B8093030180
:103BF000809103011F928F9381EC92E0B3CF1092DA
:103C00000301F6CF80910201681750F4861B809360
:103C10000201809102011F928F9386EA92E0A2CF67
:103C200010920201F6CFCF93C82F1F928F938BEA89
:103C300095E09F938F930E94D00661E070E080E052
:103C400090E004C0660F771F881F991FCA95D2F7AE
:103C50000E94BC150F900F900F900F90CF910C9475
:103C6000FE11873208F052C08E3108F01CC180313D
:103C700009F4ABC0F8F4873009F48AC048F4863000
:103C800009F475C087E099E00E94370680E0089546
:103C90008B3009F467C08E30A9F79091F501892F18
:103CA0008B7F92FF84608093F50182FF8BC087E455
:103CB00099E026C0863109F4AFC088F4813111F74C
:103CC0000E94FE1190912E02892F97FB87F9805850
:103CD00080932E0287FFE4C084E199E045C08931DA
:103CE00009F483C08B3171F69091F501892F8D7F96
:103CF00091FF82608093F50181FF61C084E699E0C5
:103D00000E9437068091F501816056C0883351F1D9
:103D100058F4893229F0853319F0873209F0B2CF8F
:103D200080E00E94131E1CC08334D1F328F48A3330
:103D300008F4A8CF8953F5CF883409F0A3CF0E94A7
:103D4000FE118AE899E00E9437062FEF83ED90E399
:103D5000215080409040E1F700C000000E94191AF5
:103D600081E008958CE697E00E943706F9CF8091B4
:103D7000F501807F8093F50185E497E00E94370686
:103D800086EA99E00E94370681E080930102089557
:103D90009091F501892F8E7F90FF81608093F501CE
:103DA00080FF03C08EE799E0DFCF81E799E00E94B2
:103DB00037068091F501817F8093F501D1CF86E5AB
:103DC00099E0D2CF87E399E0CFCF9091F501892F89
:103DD000877F93FF88608093F50183FF03C08BE2A8
:103DE00099E08ECF8EE199E0BFCF86E397E00E9405
:103DF00037068BE097E00E94370681ED96E00E943F
:103E0000370687E996E00E9437068CE596E00E9427
:103E1000370681E396E0A8CF83E296E00E9437065A
:103E20000E946D0C1F928F9389E096E09F938F9371
:103E30000E94D006809112011F928F9382EF95E02D
:103E40009F938F930E94D006809126021F928F939A
:103E50008FED95E09F938F930E94D00680912E0264
:103E600087FB882780F91F928F9387EC95E09F93BB
:103E70008F930E94D0060E94BF199F938F937F93C8
:103E80006F9380EB95E09F938F930E94D0068DB740
:103E90009EB746960FB6F8949EBF0FBE8DBF60CFFB
:103EA00089E099E061CF8D513CCF80E008950C947A
:103EB000551F8E518A3030F4E82FF0E0EE5DFE4F52
:103EC0008081089580E00895CF93C82F80910102EA
:103ED0008130D9F0882339F0823009F44DC0109236
:103EE000010280E010C0E0910001F09101018081A9
:103EF0008232B9F78C2F0E94551F81111EC08C2F62
:103F00000E94311E8170CF910895E0910001F091DF
:103F100001018081823271F38C2F0E94571F811121
:103F20001BC0C431D9F060F4CB3071F0C031D1F096
:103F300081EA95E00E94370613C081E090E0E2CF6D
:103F4000C93261F0C833A1F785E497E00E943706D3
:103F500087EA95E00E94370681E0D4CF10920102F3
:103F600080E0D0CF0E94D91C83EA95E00E943706FA
:103F700082E080930102F0CFC432C8F4CE3108F061
:103F8000BEC0CB30E1F040F4C73009F4CCC085E4CA
:103F900094E00E94370626C0C331C1F1C431B9F79D
:103FA00080910002882351F1109200020AC0CB34A4
:103FB00009F4B7C0C8F4C93299F3C83341F70E9475
:103FC000D91C80910002882309F4C4C01F928F93EA
:103FD0008FE394E09F938F930E94D0060F900F90F1
:103FE0000F900F9081E08FCFC13509F494C0C23596
:103FF00009F48BC0CE3459F66AE08EC084E594E0B3
:104000000E94370681E0809301027DCF8EE294E02A
:104010000E9437068CE194E00E94370680910701E8
:104020001F928F9389E194E09F938F930E94D00613
:1040300087E194E00E94370685E094E00E9437060D
:10404000809106011F928F9382E094E09F938F935B
:104050000E94D00680E094E00E94370681EF93E052
:104060000E943706809105011F928F938EEE93E098
:104070009F938F930E94D0068CEE93E00E943706A8
:104080008BED93E00E943706809104011F928F937D
:1040900088ED93E09F938F930E94D00686ED93E086
:1040A0000E94370681EC93E00E943706809103015D
:1040B0001F928F938EEB93E09F938F930E94D00675
:1040C0008CEB93E00E94370685EA93E00E94370666
:1040D000809102011F928F9382EA93E09F938F93C6
:1040E0000E94D00680EA93E00E9437068DB79EB703
:1040F00048960FB6F8949EBF0FBE8DBF62CF8C2F2F
:104100000E94591F809300025CCF61E08091000201
:104110000E94F01C56CF61E0809100020E94941D25
:1041200050CF6AE0F3CF8EE18093070182E3809362
:1041300006018AE08093050184E18093040188E010
:104140008093030188E28093020187E494E00E9457
:10415000370637CF8CE394E01CCF80912502089579
:104160009FB7F894109204029FBF9091340294304C
:1041700009F049C02091E9002F709091EC0090FD6A
:1041800030C090E0922B24E02093E9002091EB00D6
:1041900020FF36C02091EE0027FF32C0209102029E
:1041A000222321F02091E80025FF2AC0109202026C
:1041B00026E03091E80035FF16C08093F100809131
:1041C000E80085FD29C08091E80080FFFCCF809148
:1041D000E8008E778093E8009F709093E90080E07C
:1041E000089590E8CFCF30913402343049F43091C3
:1041F000EB0035FD05C0215041F481E080930202BF
:104200009F709093E9008FEF0895EFE9FFE03197F9
:10421000F1F700C00000CDCF8FB7F89421E02093D4
:1042200004028FBFD9CF0F931F93CF93DF9300D09A
:104230000F92CDB7DEB78C010E94E723823011F0D8
:10424000843019F583E089831B830A838093E90016
:104250008FEF9091E800815095FD06C095ED9A95FD
:10426000F1F700008111F5CF8091E80085FF0DC0C6
:1042700050E040E063E070E0CE0101960E9404242B
:104280008091E8008E778093E8000F900F900F9058
:10429000DF91CF911F910F910895CF93DF9300D0BD
:1042A0000F92CDB7DEB720913402243031F522E0F1
:1042B0002983805891099B838A8383E08093E90056
:1042C0008FEF9091E800815095FD06C095ED9A958D
:1042D000F1F700008111F5CF8091E80085FF0DC056
:1042E00050E040E063E070E0CE0101960E940424BB
:1042F0008091E8008E778093E8000F900F900F90E8
:10430000DF91CF910895CF93DF93EC010E94E723D3
:10431000823011F08430F9F482E08093E9008FEF6D
:104320009091E800815095FD06C095ED9A95F1F7C2
:1043300000008111F5CF8091E80085FF0CC050E0AE
:1043400040E065E070E0CE010E9404248091E80026
:104350008E778093E800DF91CF910895CF93DF931C
:10436000EC010E94E723823011F08430F9F480914F
:1043700012018823F1F080912E0287FF1AC085E098
:104380008093E9008FEF9091E800815095FD06C081
:1043900095E19A95F1F700008111F5CF8091E80041
:1043A00050E040E060E270E085FD1AC0DF91CF91FF
:1043B000089581E08093E9008FEF9091E8008150AB
:1043C00095FD06C095ED9A95F1F700008111F5CFA6
:1043D0008091E80085FFEACF50E040E068E070E0BF
:1043E000CE010E9404248091E8008E778093E8003B
:1043F00080E2FE01A5E0B2E001900D928A95E1F71E
:10440000D5CF8FEC99E00E9437068091330281115D
:1044100009C00E9492250E94EF258091E2008460ED
:104420008093E20008958BEC99E00E943706109289
:104430003302089587EC99E00C94370683EC99E0F9
:104440000C9437068FEB99E00E9437060C947B1989
:10445000209103022F5F822F62E30E948A28992312
:1044600019F0209303020895109203028091040230
:104470008823E9F0809134028430B9F49091E90006
:104480009F708091EC0080FD13C080E0892B94E048
:104490009093E9009091EB0090FF04C09091EE00A2
:1044A00097FD0AC08F708093E9001092040208956E
:1044B00080E8ECCF1092F1009091E80095FDFACFE2
:1044C0009091E80090FFEECF9091E8009E77909356
:1044D000E800E8CF42E061EC81E00E94102542E074
:1044E00061EC82E00E94102542E061EC83E00E94D2
:1044F000102542E261EC84E00E94102542E261EC6A
:1045000085E00C94102580913602833009F455C063
:1045100030F4813071F1823009F491C008958A300D
:1045200009F47DC08B3009F463C0893009F044C0C0
:1045300080913502813209F03FC08091390290911B
:104540003A02009711F00497B9F58091E800877F4F
:104550008093E8008091E80082FF2AC08091F100FA
:10456000809325028091E8008B778093E8000C947B
:10457000442580913502813AF9F48091E800877FE3
:104580008093E8008091390290913A02892B61F47E
:1045900060E285E092E070E00E9453248091E800A0
:1045A0008B778093E800089560E090E080E0F3CF9F
:1045B000809134028111CECF089580913502813AE5
:1045C000D9F78091390290913A02892BA9F780910D
:1045D000E800877F8093E8008091E80080FFFCCFAF
:1045E000809112018093F1008091E8008E77BDCF19
:1045F00080913502813201F78091390290913A021F
:10460000892BD1F68091E800877F8093E8000E9493
:10461000442580913702809312010C94FE11809101
:104620003502813249F68091E800877F8093E80067
:104630000E9444258091380280932602089580913B
:104640003502813A09F0B8CF8091E800877F8093E6
:10465000E8008091E80080FFFCCF80912602C2CF65
:1046600084B7877F84BF0FB6F894A89580916000C7
:10467000886180936000109260000FBE80E8809394
:104680006100109261000E94FD0C0E9492250E9420
:10469000EF258091E20084608093E20080EB90E25D
:1046A0000E94311878940E946E280E94010D88E0C3
:1046B00091E00E94680C8EEA99E00E943706809192
:1046C0003402853019F00E94350DF9CF8AEA99E05D
:1046D0000E9437060E94321980913202882379F3B2
:1046E0000E946319882359F30E94EE23E8CF0C94AB
:1046F0007923292F33272330310521F168F4213024
:10470000310509F449C02230310509F44AC090E06E
:1047100080E030E020E029C02132310581F12232F1
:104720003105A9F76530710590F7FB01EE0FFF1F0A
:10473000EF5CFE4F20813181645D7E4FFB01808103
:1047400090E013C099278130910599F0009741F0CE
:104750008230910589F00397D1F6E3EDF9E002C0CC
:10476000E3E0FAE0849190E09F01FA013183208335
:104770000895E9EEF9E0F6CFE9EDF9E0F3CF653021
:10478000710528F6660F771FFB01E55CFE4F20815F
:10479000318189E090E0E9CF82E190E024E93AE0DC
:1047A000E4CF8DE890E027E03AE0DFCF0895CF93A3
:1047B000C82F0E94D623C0932702CF9108958091DD
:1047C0003402843011F482E0089581E008958091EC
:1047D0002702811102C00C94DF23089580E189BD76
:1047E00082E189BD09B400FEFDCF8091D8008F7DA4
:1047F0008093D8008091E00082608093E0008091F7
:10480000E00081FDFCCF0895AF92BF92CF92DF927E
:10481000FF920F931F93CF93DF936C01EB018A01FB
:104820000E946325F82E811123C00115110539F06E
:10483000F80180819181C81BD90BC80ED91EB12CFB
:10484000A12C2097A9F08091E80085FD22C08091DD
:10485000E8008E778093E80001151105A1F0F801BA
:1048600080819181A80EB91EB182A08285E0F82EC8
:104870008F2DDF91CF911F910F91FF90DF90CF90FF
:10488000BF90AF9008950E9463258823D1F2F82E3F
:10489000EFCFF60181916F018093F1002197FFEF37
:1048A000AF1ABF0ACECFFC0180913B0290913C022F
:1048B00086179707A0F06115710529F49091E8001B
:1048C0009E779093E80090E06115710551F4911185
:1048D00008C08091E80082FF34C080E00895BC01E8
:1048E000F2CF809134028823C1F18530C1F18091EB
:1048F000E80083FD30C08091E80082FDEACF80911E
:10490000E80080FFE1CF8091F3002091F200382F82
:104910006115710519F02830310558F091E0283003
:10492000310509F090E02091E8002E772093E8000F
:10493000CBCF81918093F100615071092F5F3F4F80
:10494000E7CF80913402882341F0853041F0809197
:10495000E80083FFBECF81E0089582E0089583E000
:104960000895FC0180913B0290913C0286179707C5
:10497000A0F06115710529F48091E8008E7780938D
:10498000E80090E06115710551F4911108C0809123
:10499000E80082FF35C080E00895BC01F2CF80912D
:1049A00034028823C9F18530C9F18091E80083FD84
:1049B00031C08091E80082FDEACF8091E80080FF5D
:1049C000E1CF8091F3002091F200382F611571053D
:1049D00019F02830310558F091E02830310509F000
:1049E00090E08091E8008E778093E800CBCF8491AF
:1049F0008093F1003196615071092F5F3F4FE6CFF0
:104A000080913402882341F0853041F08091E800A4
:104A100083FFBDCF81E0089582E0089583E008958B
:104A2000982F973028F08F708093E90081E00895E7
:104A30009093E900242F762F50E0981731F0709171
:104A4000EC002091ED005091F00021FD02C09F5F2D
:104A5000E8CF3091EB003E7F3093EB003091ED00DA
:104A60003D7F3093ED003091EB0031603093EB00EF
:104A70007093EC002093ED005093F0002091EE0035
:104A800027FDE5CF80E008958091350287FF13C0B0
:104A90008091E80082FF06C08091E8008B778093C8
:104AA000E80004C0809134028111F2CF0895809112
:104AB00034028823D9F38091E80080FFF8CF8091F9
:104AC000E8008E77ECCF2091E4003091E50085E698
:104AD000A9019091EC0090FF06C09091E80090FF32
:104AE00006C080E008959091E80092FDFACF909181
:104AF0003402992389F0953089F09091EB0095FD6F
:104B00000FC02091E4003091E5004217530709F3EC
:104B10008150F1F684E0089582E0089583E00895DD
:104B200081E008950E9400260E940826E0EEF0E051
:104B3000808181608083E8EDF0E080818F778083E1
:104B400019BCA7EDB0E08C918E7F8C9380818F7E15
:104B500080831092330208950F931F93CF93DF93B6
:104B60000E9400260E940826C8EDD0E088818F7739
:104B7000888388818068888388818F7D888319BC39
:104B800010923402109230021092320210923102CE
:104B900000EE10E0F80180818B7F80838881816046
:104BA000888342E060E080E00E941025E1EEF0E0C2
:104BB00080818E7F8083E2EEF0E08081816080835F
:104BC000808188608083F80180818E7F80838881E6
:104BD00080618883DF91CF911F910F910895E8ED57
:104BE000F0E080818F7E8083E7EDF0E0808181605E
:104BF000808384E082BF81E0809333020C94AC25F3
:104C0000E8EDF0E080818E7F80831092E2000895CD
:104C10001092DA001092E10008951F920F920FB6E1
:104C20000F9211242F933F934F935F936F937F9332
:104C30008F939F93AF93BF93EF93FF938091E10086
:104C400082FF0BC08091E20082FF07C08091E100EB
:104C50008B7F8093E1000E9428228091DA0080FF00
:104C600019C08091D80080FF15C08091DA008E7F36
:104C70008093DA008091D90080FF94C080E189BDE3
:104C800082E189BD09B400FEFDCF81E0809334024A
:104C90000E9401228091E10080FF19C08091E20012
:104CA00080FF15C08091E2008E7F8093E2008091AA
:104CB000E20080618093E2008091D800806280935E
:104CC000D80019BC85E0809334020E941E22809196
:104CD000E10084FF29C08091E20084FF25C080E1CB
:104CE00089BD82E189BD09B400FEFDCF8091D80065
:104CF0008F7D8093D8008091E1008F7E8093E100CA
:104D00008091E2008F7E8093E2008091E2008160DA
:104D10008093E20080913002882309F449C084E046
:104D2000809334020E9422228091E10083FF29C0F7
:104D30008091E20083FF25C08091E100877F80930E
:104D4000E10082E080933402109230028091E10011
:104D50008E7F8093E1008091E2008E7F8093E2005D
:104D60008091E20080618093E20042E060E080E0B8
:104D70000E9410258091F00088608093F0000E94CE
:104D80001A22FF91EF91BF91AF919F918F917F91E7
:104D90006F915F914F913F912F910F900FBE0F90A8
:104DA0001F90189519BC109234020E94132272CFE2
:104DB0008091E30087FD02C081E0B2CF83E0B0CFF5
:104DC0001F920F920FB60F9211242F933F934F9380
:104DD0005F936F937F938F939F93AF93BF93CF9383
:104DE000EF93FF93C091E900CF708091EC00109297
:104DF000E9008091F000877F8093F00078940E9412
:104E00001C271092E9008091F00088608093F000E8
:104E1000C093E900FF91EF91CF91BF91AF919F9126
:104E20008F917F916F915F914F913F912F910F9053
:104E30000FBE0F901F9018951F93CF93DF93CDB7A0
:104E4000DEB7AA970FB6F894DEBF0FBECDBF85E3DD
:104E500092E02091F100FC012193CF01F2E08D332B
:104E60009F07B9F70E9483228091E80083FF1EC14B
:104E700080913502909136029A3008F017C1E92FDF
:104E8000F0E0EF5BF64D0C94AA28803899F0823858
:104E900009F00CC1809139028F70873008F006C18B
:104EA0008093E9008091EB0085FB882780F91092C0
:104EB000E90006C080913102909132029111826026
:104EC0009091E800977F9093E8008093F100109212
:104ED000F1008091E8008E77E5C0882309F4D3C003
:104EE000823009F0E3C0809137028111D6C08091F1
:104EF00039028F702FEF280F263008F0D7C080932B
:104F0000E9002091EB0020FFC8C0933031F480917C
:104F1000EB0080628093EB00C0C09091EB00906149
:104F20009093EB0021E030E001C0220F8A95EAF770
:104F30002093EA001092EA008091EB008860EACFAB
:104F40008111B4C0109137021F778091E3008078FF
:104F5000812B8093E3008091E800877F8093E800B5
:104F60000E9444258091E80080FFFCCF8091E300FF
:104F700080688093E30082E0111183E08093340223
:104F800095C08058823008F091C08091370290918E
:104F900038028C3D23E09207A1F583E08A838AE200
:104FA00089834FB7F894DE01139620E03EE051E28A
:104FB000E32FF0E050935700E49120FF03C0E29507
:104FC000EF703F5FEF708E2F90E0EA30C0F0C79631
:104FD0008D939D932F5F243159F74FBF8091E80047
:104FE000877F8093E8006AE270E0CE0101960E941C
:104FF00053248091E8008B778093E80057C0C096D7
:10500000E7CF6091390270913A02AE014F5F5F4F76
:105010000E947723BC01892B09F448C09091E800D5
:10502000977F9093E80089819A810E94B124E1CF13
:105030008038E1F58091E800877F8093E8008091D7
:1050400030028093F10045CF811130C0909137023A
:10505000923060F58091E800877F8093E80090931C
:1050600030020E94442580913002882311F084E0B0
:1050700005C08091E30087FDFACF81E08093340280
:105080000E946A2213C080913702813079F481E056
:10509000933009F080E0809332021092E900809111
:1050A000E800877F8093E8000E9444258091E80013
:1050B00083FF0AC08091E800877F8093E800809199
:1050C000EB0080628093EB00AA960FB6F894DEBFE7
:1050D0000FBECDBFDF91CF911F910895CF938091E7
:1050E0003402882399F0C091E900CF708091EC00E0
:1050F00080FD0EC080E0C82B1092E9008091E8008E
:1051000083FD0E941C27CF70C093E900CF910895C2
:1051100080E8F1CF991B79E004C0991F961708F039
:10512000961B881F7A95C9F78095089597FB072EDF
:1051300016F4009407D077FD09D00E94B02807FC30
:1051400005D03EF4909581959F4F08957095619597
:105150007F4F0895EE0FFF1F0590F491E02D099405
:10516000AA1BBB1B51E107C0AA1FBB1FA617B7078D
:1051700010F0A61BB70B881F991F5A95A9F78095A9
:105180009095BC01CD010895F999FECF92BD81BDE6
:10519000F89A992780B50895A8E1B0E042E050E080
:1051A0000C94EC28262FF999FECF92BD81BDF89A78
:1051B000019700B4021639F01FBA20BD0FB6F8945B
:1051C000FA9AF99A0FBE08950196272F0E94D328C4
:1051D0000C94D228DC01CB01FC01F999FECF06C06A
:1051E000F2BDE1BDF89A319600B40D9241505040A5
:1051F000B8F70895F894FFCFCA07D607DA07DE0795
:10520000E207E607EA07EE07F207F607FA07FE07E6
:10521000020806080A080E08120816089C0F9C0FC0
:10522000FB0FFB0F42105E10C90FC90FA010C90F72
:1052300038113811A311C90FC90FAC114211421115
:1052400042114211421142114211421142114211C6
:105250004211421142114211421142114F115D118E
:1052600064116B1175110F120F12181218121A1205
:105270001812181218120F120F121F1218121812E9
:105280001F1245276D2756286D275628A027C127AE
:065290005628182824280E
:10529600D2012808140A321EAD20AE2183214D21E9
:1052A600132101F4F5F6F73133979694909134353E
:1052B600323601020304050607080900404D36226E
:1052C60039840B370B010BDF0AA60A190A320A4B7F
:0652D6000A640A840A00CC
:0200000400807A
:04023D0000000000BD
:00000001FF
